:020000040800F2
:1000000000000220CD250008FD1F0008FF1F00088A
:10001000012000080320000805200008000000005F
:100020000000000000000000000000003153000844
:100030000720000800000000D153000835540008D4
:100040001D2600081D2600081D2600081D26000884
:100050001D2600081D2600081D2600081D26000874
:100060001D2600081D2600081D2600081D26000864
:10007000092000081D2600081D2600081D2600086E
:100080001D2600081D2600081D260008192000084E
:10009000292000081D2600081D2600081D2600082E
:1000A0001D260008392000081D2600081D2600080E
:1000B000512000081D2600081D2600081D260008E6
:1000C0001D2600081D2600081D2600081D26000804
:1000D0001D2600081D2600081D26000861200008B6
:1000E0001D2600081D2600081D2600081D260008E4
:1000F0001D2600081D2600081D2600081D260008D4
:100100001D2600081D2600081D2600081D260008C3
:100110001D2600081D2600081D2600081D260008B3
:10012000712000081D2600081D26000881200008F7
:100130001D2600081D2600081D2600089120000825
:10014000A12000081D2600081D2600081D26000805
:100150001D2600081D2600081D2600081D26000873
:100160001D2600081D2600081D2600081D26000863
:100170001D2600081D2600081D260008000000009E
:080180001D2600081D260008E1
:1001900053B94AB9002908BF00281CBF4FF0FF31EE
:1001A0004FF0FF3000F00CB8ADF1080C6DE904CE53
:1001B00006F0F8F9DDF804E0DDE9022304B0704749
:1001C000704700BF844641EA000313F003036DD17A
:1001D000403A41D351F8043B40F8043B51F8043B0A
:1001E00040F8043B51F8043B40F8043B51F8043B11
:1001F00040F8043B51F8043B40F8043B51F8043B01
:1002000040F8043B51F8043B40F8043B51F8043BF0
:1002100040F8043B51F8043B40F8043B51F8043BE0
:1002200040F8043B51F8043B40F8043B51F8043BD0
:1002300040F8043B51F8043B40F8043B51F8043BC0
:1002400040F8043B51F8043B40F8043B51F8043BB0
:1002500040F8043B403ABDD2303211D351F8043B50
:1002600040F8043B51F8043B40F8043B51F8043B90
:1002700040F8043B51F8043B40F8043B103AEDD2FF
:100280000C3205D351F8043B40F8043B043AF9D250
:10029000043208D0D2071CBF11F8013B00F8013B23
:1002A00001D30B8803806046704700BF082A13D330
:1002B0008B078DD010F003038AD0C3F10403D21A48
:1002C000DB071CBF11F8013B00F8013B80D331F87C
:1002D000023B20F8023B7BE7043AD9D3013A11F8FC
:1002E000013B00F8013BF9D20B7803704B78437067
:1002F0008B788370604670470348044B834202D07A
:10030000034B03B118477047180000201800002065
:10031000000000000548064B1B1AD90F01EBA30192
:10032000491002D0034B03B1184770471800002052
:10033000180000200000000010B5064C237843B9D7
:10034000FFF7DAFF044B13B10448AFF30080012339
:10035000237010BD1800002000000000246A00086F
:1003600008B5054B1BB105490548AFF30080BDE852
:100370000840FFF7CFBF00BF000000001C000020B6
:10038000246A00088368FBB110B5044672B683681E
:10039000B3B1826943689A4201D9036883612269D3
:1003A000A069FFF70FFFA36922691344A361A36843
:1003B000013BA360E3680133E36062B6002010BD37
:1003C00062B64FF0FF30FAE74FF0FF30704710B5DC
:1003D0000446C368F3B1084672B6E368B3B1626914
:1003E00063689A4201D92368636122696169FFF7F2
:1003F000E9FE6369226913446361A3680133A36062
:10040000E368013BE36062B6002010BD62B64FF0C6
:10041000FF30FAE74FF0FF30F7E710B50446C36846
:10042000B3B10846626963689A4201D9236863617F
:1004300022696169FFF7C6FE63692269134463613B
:10044000A3680133A360E368013BE360002010BDB3
:100450004FF0FF30FBE7C068B0FA80F0400970470A
:100460008068B0FA80F04009704780ED000A90ED96
:10047000037A27EE000AF7EE007A77EEC77A90ED5E
:10048000017A67EE877A30EE270A80ED020A80ED66
:10049000010A704780ED000A90ED037A27EE000A0A
:1004A000F7EE007A77EEC77A90ED017A67EE877AF9
:1004B00030EE270A80ED020A80ED010A704790EDC8
:1004C000197AD0ED027A67EE276AD0ED005A76EEFF
:1004D000A56A87EEA66A77EEA57AC7EEA65A27EE3A
:1004E000067AD0ED0A7A67EE877A90ED067A27EEE3
:1004F000257A77EE877A90ED057A27EE067A77EE01
:10050000877AC0ED0A7A704790ED047AD0ED037ACD
:1005100077EE677AF5EEC07AF1EE10FA16DDB0EEFE
:10052000676AD0ED226AF4EEC66AF1EE10FA0CDAD0
:10053000F5EEC07AF1EE10FA0BDDFFEE007A66EE12
:10054000A76A37EE267A80ED037A7047B1EE676AC4
:10055000E7E702D4DFED027AF1E7F7EE007AEEE7A3
:100560000000000090ED167AD0ED0F7AB4EEE77A35
:10057000F1EE10FA08DD90ED157AF4EEC77AF1EE9F
:1005800010FA01D500234362704790ED077AD0ED51
:10059000137AB4EEE77AF1EE10FA01DDC0ED077AD6
:1005A00090ED077AF1EE677AB4EEE77AF1EE10FAA1
:1005B00001D5C0ED077A7047D0ED0F7AF5EEC07A1D
:1005C000F1EE10FA10DDD0ED186AF4EEE76AF1EE04
:1005D00010FA18DA90ED177AB4EEE77AF1EE10FA25
:1005E00005D50023C3617047F1EE677AEBE790ED24
:1005F000076A77EE677A37EE667AC7EE876A66EE45
:10060000267AC0ED077A704790ED0B7AD0ED117A1B
:10061000B4EEE77AF1EE10FA01DDC0ED0B7A90ED61
:100620000B7AF1EE677AB4EEE77AF1EE10FA01D5C3
:10063000C0ED0B7A70472DE9F041044610EE108AA8
:1006400010EE907A11EE106A0D469022002106F00D
:1006500011F9C4F800806760A660A564BDE8F08168
:10066000202915D8D9B101391F2918D8DFE801F0A0
:10067000341E1729171717211717171717171724BD
:100680001717171717171717171717171717172CE5
:1006900080291ED0B1F5807F02D180ED220A7047FB
:1006A000402902D180ED210A7047704780ED130A7E
:1006B000704780ED190A704780ED150AC0ED160AE3
:1006C000704780ED110A704780ED170AC0ED180AD7
:1006D000704780ED1D0A704780ED140A70470023B3
:1006E0000364C363836343630363C36183624362DD
:1006F0000362C36203614361C3608361C367C3660E
:10070000704710B52DED028B0446B0EE608A80ED87
:10071000030A836C13F4807F6AD184ED068AD4EDDA
:10072000037A77EEC80AC4ED0F0AD4ED107A70EEA2
:10073000E77AC4ED0C7AF5EEC00AF1EE10FA5ADD54
:10074000B0EE607AD4ED146AF4EEC76AF1EE10FAF6
:1007500078D594ED007A20EE877A84ED087A94EDCE
:10076000077A70EE870AC4ED070AA36C13F0080F2E
:1007700044D194ED027A67EE877AC4ED0A7AA36CCD
:1007800013F0200F3ED1A36C13F0020F3ED1D4ED35
:10079000017A94ED077A67EE877AC4ED097AA36C43
:1007A00013F0100F36D1A36C13F0800F36D194EDF7
:1007B000080AD4ED097A30EE270AD4ED0A7A30EE31
:1007C000270A84ED0B0AA36C13F0400F2FD1A36C02
:1007D00013F0040F32D1A3696361E3682361236BD3
:1007E0006363E36B236494ED0B0ABDEC028B10BDD5
:1007F000FFF78AFE91E7B1EE607AA3E72046FFF7A4
:100800005EFEBCE72046FFF7D7FEBCE72046FFF7B9
:10081000BCFEBCE72046FFF7A5FEC4E794ED0A0A3C
:1008200004F16800FFF736FE84ED0A0ABFE704F121
:100830007800FFF72FFE84ED0B0AC8E72046FFF78C
:10084000E3FEC8E72046FFF74AFFC4E710B52DEDE9
:10085000028B0446B0EE418A0846FFF752FF84ED52
:10086000030AF0EE480A2046FFF74BFFBDEEC00A30
:1008700010EE103A18B2BDEC028B10BD08B538224C
:10088000002105F0F7FF08BD70B509294BD80646D1
:100890004C1EC4EBC403254D05EBC3052846FFF7EA
:1008A000EDFF85F82660002385F8283085F827308D
:1008B000032E39D8DFE806F002131F2B1B4AC4EBC6
:1008C000C40302EBC3034FF40051998413215985EB
:1008D0000A2199851A464FF48073D38524E0134B7F
:1008E000C4EBC40203EBC2024FF4005191841346DF
:1008F00001225A8518E00D4BC4EBC40203EBC2027F
:100900004FF400519184134624225A850CE0074B82
:10091000C4EBC40203EBC2024FF4005191841346AE
:1009200035225A8500E00025284670BD340000209D
:10093000034691F82620032A1AD891F82700D0B14F
:10094000B1F92C209A4209DA0B6B01330B630A6B65
:10095000B1F92E309A420DDD012070475242934288
:1009600003DA0B6B01330B63F1E700230B63EEE754
:10097000002070470020704701EBD1735B105A4292
:10098000904202DA0844013800B2834202DA401A87
:10099000013000B270470000092A55D82DE9F04F08
:1009A00083B00746541EC4EBC403284E06EBC306AF
:1009B0003084B1838BB2728B9B1AF3837183337E45
:1009C0001BB90122327670847060B8B2DFF87C8087
:1009D000C4EBC4054FEAC50B08EBC5056B8CC01A08
:1009E000B5F924A0514600B2FFF7C6FF0190019A65
:1009F00058F80B30134448F80B3001996A680A44E0
:100A00006A606F84B5F92A1001FB02F292FBFAF2D8
:100A100007EE902AF8EEE77AC5ED027A01FB03F3C0
:100A200093FBFAF307EE903AF8EEE77AC5ED057A14
:100A30000198314600B2FFF77BFF85F828000023BC
:100A4000019303B0BDE8F08F704700BF3400002071
:100A500084B010B58CB00EAC84E80F00EFF31084B6
:100A600072B60FA8FFF7F7FC60B100238DF8603075
:100A700084F310880CB0BDE8104004B07047002328
:100A80008DF860300FA8FFF7E6FC0028F0D10E9833
:100A900001F02AFF0028F2D008A90FA8FFF7BDFC3B
:100AA000089B02939DF8243006930023049305933A
:100AB00001AB0DF1250202A90E9801F097FEE1E7C6
:100AC000C162012070470000082B79D8F0B599B0B9
:100AD0000F4615461E4608913A4B984204D03A4BB1
:100AE00098420FD0002023E00CACDFF8E0C0BCE857
:100AF0000F000FC4BCE80F000FC49CE80F0084E88F
:100B00000F000CE00CACDFF8C8C0BCE80F000FC44D
:100B1000BCE80F000FC49CE80F0084E80F0000241D
:100B20001AE000238DF858309DF8583013B3204652
:100B300019B0F0BD331B8DF824302B68CDF825306B
:100B40006B68CDF829309DF824000544204484B218
:100B500008A90DA8FFF716FCB442E5D20DA8FFF7CF
:100B60007FFC0028DDD1331B072BE3DD08238DF844
:100B70002430E2E70DA8FFF76EFC0028D7D10297DA
:100B800000230493059310E008A90DA8FFF71FFCAC
:100B90009DF82430069301AB0DF1250202A90C98B3
:100BA00001F024FE01238DF858300C9801F09CFED2
:100BB0000028BCD00DA8FFF74EFC0028E4D0B6E713
:100BC00000207047AC110020841100209C020020FE
:100BD0006C02002010B588B0144B984204D0144B1E
:100BE000984212D008B010BD124CEC4604F1100E21
:100BF000BEE80F00ACE80F009EE80F008CE80F0085
:100C000094E80F00FFF724FFECE70B4CEC4604F1EF
:100C1000100EBEE80F00ACE80F009EE80F008CE855
:100C20000F0094E80F00FFF713FFDBE7AC11002083
:100C3000841100209C0200206C02002010B588B0B6
:100C4000144B984204D0144B984212D008B010BDF7
:100C5000124CEC4604F1100EBEE80F00ACE80F0099
:100C60009EE80F008CE80F0094E80F00FFF7F0FEFD
:100C7000ECE70B4CEC4604F1100EBEE80F00ACE8BC
:100C80000F009EE80F008CE80F0094E80F00FFF7BC
:100C9000DFFEDBE7AC110020841100209C02002065
:100CA0006C02002010B588B0144B984204D0144B4D
:100CB000984212D008B010BD124CEC4604F1100E50
:100CC000BEE80F00ACE80F009EE80F008CE80F00B4
:100CD00094E80F00FFF7BCFEECE70B4CEC4604F188
:100CE000100EBEE80F00ACE80F009EE80F008CE885
:100CF0000F0094E80F00FFF7ABFEDBE7AC1100201C
:100D0000841100209C0200206C02002030B589B0C4
:100D10000446164B984207D0154B984215D02046F2
:100D200001F0CDFF09B030BD124DEC4605F1100EBB
:100D3000BEE80F00ACE80F009EE80F008CE80F0043
:100D400095E80F00FFF784FEE9E70B4DEC4605F14F
:100D5000100EBEE80F00ACE80F009EE80F008CE814
:100D60000F0095E80F00FFF773FED8E7AC110020E5
:100D7000841100209C0200206C02002010B58AB073
:100D8000044601AB03AA002101F0C7FD0B4B9C42B6
:100D900004D00B4B9C4209D00AB010BD094BDB6A52
:100DA000002BF9D001A903A89847F5E7064BDB6AA9
:100DB000002BF1D001A903A89847EDE7AC11002062
:100DC000841100209C0200206C02002000B583B03A
:100DD0004FEA202C8DF800C08DF8010008128DF824
:100DE00002008DF8031011128DF804108DF8052003
:100DF0001A128DF806208DF8073008236A464FF442
:100E000000710348FFF760FE03B05DF804FB00BF0C
:100E1000AC11002000B583B04FEA202C8DF800C043
:100E20008DF8010008128DF802008DF803101112E0
:100E30008DF804108DF805201A128DF806208DF813
:100E4000073008236A4640F2FF110348FFF73CFED3
:100E500003B05DF804FB00BFAC11002008B5944658
:100E60000B4A4FEA202E82F800E050700812907072
:100E7000D1704FEA2C21117182F805C019129171BD
:100E8000D371082340F2FF210248FFF71DFE08BD81
:100E900064020020AC110020002800DB70474042B3
:100EA00000B2FBE708B51D4BB3F90000FFF7F4FFF4
:100EB000B0F52F7F1FDC194BB3F90200FFF7ECFFF1
:100EC000B0F52F7F17DC154BB3F90400FFF7E4FFF3
:100ED000B0F52F7F0FDC114BB3F90800FFF7DCFFF3
:100EE000B0F52F7F07DC0D4B9B7A23B10B4BDB7AE0
:100EF0000BB1002010E0094B00221A805A809A8022
:100F0000DA801A8102219972D9729A81DA811A8261
:100F10009A74DA749A83012008BD00BFCC020020C5
:100F200038B505460C4603F039F82146284603F04B
:100F300077FB1CB92B6800225A6338BD042C05D0FE
:100F4000082C07D02B6800221A64F6E72B680022D1
:100F50009A63F2E72B680022DA63EEE738B5244D96
:100F60002B681968234A91F9011011701968B1F9B9
:100F700000105170196891F9031091701968B1F956
:100F80000210D170196891F9051011711968B1F941
:100F900004105171196891F9071091711B68B3F928
:100FA0000630D371144C08234FF480712046FFF7AC
:100FB0008BFD022004F064FF2B6819680F4A91F939
:100FC000091011701968B1F9081051701968897AFF
:100FD00091701B68DB7AD370002313715371937186
:100FE000D37108234FF481712046FFF76DFD38BDA2
:100FF000745B0020F402002084110020EC02002029
:1010000010B50C460368A3F20123082B1DD8DFE8B6
:1010100003F0051C1C1C1D351C1C4D000B7848786A
:1010200000EB03208B78C97801EB0321012209B280
:1010300000B2FFF7B1FC2279637903EB02232B4A5C
:10104000A2F88C39A379A2F88A3910BD0B784878B8
:1010500000EB03208B78C97801EB0321052209B24C
:1010600000B2FFF799FC2279637903EB02231F4A50
:10107000A2F83431A379A2F83231E6E70B78487848
:1010800000EB03208B78C97801EB0321062209B21B
:1010900000B2FFF781FC2279637903EB0223134A44
:1010A000A2F89832A379A2F89632CEE70B78487866
:1010B00000EB03208B78C97801EB0321092209B2E8
:1010C00000B2FFF769FC2279637903EB02231BB2BC
:1010D000064A02F5806107EE903AF8EEE77AC1ED34
:1010E000007AA379A2F8FA33AFE700BF2403002007
:1010F00000487047180300202DE9F0412DED0C8BBE
:10110000B6B0DFF8D483E44BC8F800306C24224634
:1011100000210DEB040005F0ADFBB7EE009A8DED5C
:101120001B9A8DED1E9AB1EE08DA8DED21DA8DED68
:10113000239AF0EE08AACDED24AAB3EE04CA8DEDF1
:1011400027CA8DED2A9A9FEDD5BA8DED2BBACDED3C
:101150002DAA8DED2F9A22460021684605F08AFBC4
:101160008DED009A8DED039A8DED069AF6EE00CA8C
:10117000CDED08CA8DED099A8DED0B9ADFEDC8BA59
:10118000CDED0CBA9FEDC7AA8DED0EAA8DED0F9A8D
:101190008DED10BA8DED129A8DED149A9FEDC28AE5
:1011A000C24C0621B0EE481AF0EE480AB0EE490AE9
:1011B0002046FFF740FA04F190070621B0EE481AE6
:1011C000F0EE480AB0EE490A3846FFF734FA04F563
:1011D000B2760621B0EE481AF0EE480AB0EE490A9F
:1011E0003046FFF728FA04F5FA750621B0EE481AE2
:1011F000F0EE480AB0EE490A2846FFF71CFADFED88
:10120000AC8AF0EE680AB0EE680A02212046FFF7C9
:1012100027FADFEDA89AF0EE480AB0EE690A042139
:101220002046FFF71DFAF0EE680AB0EE680A0221C8
:101230003846FFF715FAF0EE480AB0EE690A0421C5
:101240003846FFF70DFAF0EE680AB0EE680A0221A0
:101250003046FFF705FAF0EE480AB0EE690A0421BD
:101260003046FFF7FDF9F0EE680AB0EE680A022199
:101270002846FFF7F5F9F0EE480AB0EE690A0421B6
:101280002846FFF7EDF9A4F66404C8F804400025E9
:1012900084F8205B84F8215B05210320FFF7F4FA32
:1012A000C4F82C0106212846FFF7EEFAC4F8900294
:1012B00009210120FFF7E8FAC4F8F40301212846C8
:1012C000FFF7E2FAC4F8840902212846FFF7DCFAA6
:1012D000C4F8E80A04F587660621B0EE481AF0EE75
:1012E0004B0AB0EE490A3046FFF7A5F9F0EE680A5E
:1012F000B0EE680A02213046FFF7B2F9DFED6E9AD0
:10130000F0EE480AB0EE690A04213046FFF7A8F96A
:1013100004F10C060621B0EE491AF0EE480AB0EED0
:101320004D0A3046FFF787F9F0EE680AB0EE680A1A
:1013300002213046FFF794F99FED60BAF0EE480ABB
:10134000B0EE4B0A04213046FFF78AF904F19C06FF
:101350000621B0EE6C1AF0EE480AB0EE490A3046AB
:10136000FFF769F9F0EE680AB0EE680A022130462C
:10137000FFF776F9F0EE480AB0EE4B0A042130464A
:10138000FFF76EF904F5B8760621B0EE481AF0EED4
:10139000480AB0EE6A0A3046FFF74DF9F0EE680AE7
:1013A000B0EE680A02213046FFF75AF9DFED44AA91
:1013B000F0EE480AB0EE6A0A04213046FFF750F911
:1013C00004F500760621B0EE491AF0EE480AB0EEB8
:1013D000490A3046FFF72FF9F0EE680AB0EE680AC6
:1013E00002213046FFF73CF9F0EE480AB0EE6A0AF7
:1013F00004213046FFF734F9324BC4F8B03284EDA3
:10140000ABAA04F535760621B0EE481AF0EE480A8C
:10141000B0EE4C0A3046FFF70EF9F0EE680AB0EE77
:10142000680A02213046FFF71BF9F0EE480AB0EED9
:10143000690A04213046FFF713F904F559740621AF
:10144000B0EE4A1AF0EE480AB0EE6B0A2046FFF7FB
:10145000F2F8F0EE680AB0EE680A02212046FFF7C3
:10146000FFF8F0EE480AB0EE690A04212046FFF7C3
:10147000F7F815491548FFF723FB29461448FFF7ED
:101480004FFD144B4FF400721A6008221A7136B0E7
:10149000BDEC0C8BBDE8F0814C0E00200AD7233C3C
:1014A000000048420000FA4400000000880B0020C1
:1014B000000048430080BB4500401C4600A00C468D
:1014C00000409C450000FAC4011000089C02002066
:1014D000801600200803002018030020704710B574
:1014E000044600EE101AD0F88439B3F91C3000EE2F
:1014F000903AF8EEE00AB8EEC00A00F66400FFF792
:1015000000F904F50964D4ED007AFDEEE77A0023D2
:101510001A46194617EE900A00B2FFF757FC10BDA5
:10152000F8B504460E4617461D469DF8202090F853
:10153000203B934202D0012A00F0A380BDF91C3069
:101540006FF0090202FB03F300EE103AD4F884298D
:10155000B2F91C3000EE903AF8EEE00AB8EEC00A9C
:1015600004F66400FFF7CDF82FB1D4F82C311B68D6
:101570001F44464B1F60D4F82C31D3ED000AB3F959
:101580001C3001EE103A414B93ED000AB8EEC11A3F
:10159000F8EEE00AB8EEC00A04F19C0104F10C0078
:1015A000FFF754F92EB1D4F890321B681E44384B23
:1015B0001E60D4F89032D3ED000AB3F91C3001EE6E
:1015C000103A334B93ED000AB8EEC11AF8EEE00A78
:1015D000B8EEC00A04F5007104F5B870FFF736F9EB
:1015E000D5B107EE905AF8EEE77ADFED2A6A87EE7A
:1015F000A67ADFED297A67EE277ADFED286A87EE93
:10160000A67AF1EE007A27EE277A254BD3ED007A01
:1016100077EE877AC3ED007AD4ED0E7A94ED677A8F
:1016200004F26443D3ED006AFDEEE66ABDEEC77ACC
:10163000FDEEE77A16EE903A1BB2002217EE101A72
:1016400009B217EE900A00B2FFF7E4FB04F5096354
:10165000D3ED007AFDEEE77A00231A46194617EE1D
:10166000900A00B2FFF7B2FBD4EDC07AFDEEE77A44
:1016700000231A46194617EE900A00B2FFF7EEFB58
:10168000F8BDC3F1010380F8203B57E704030020B5
:101690000003002000002544000000460000B44381
:1016A000FC0200200C4BD3F82C2111680B4A11606E
:1016B000D3F8902211680A4A1160D3F8F433D3EDBD
:1016C000007AF8EEE77A074BC3ED007A064B4FF449
:1016D0007A721A60704700BF2403002004030020C0
:1016E00000030020FC0200200000002010B5124C76
:1016F000204650F8043BB3F9063000EE103AB8EE3D
:10170000C00AFEF7B2FE204650F8143BB3F904308D
:1017100000EE103AB8EEC00AFEF7A7FE204650F8D9
:10172000243BB3F900305B4200EE103AB8EEC00A39
:10173000FEF79BFE10BD00BF181100200048704747
:101740001811002008B5084B1B685A8940F2033372
:101750009A4205D0FFF7CAFF002004F06DFC08BDD7
:10176000002004F069FCFAE71811002008B50D48C4
:101770000D4B03600323436000238360C3604FF479
:10178000102202614FF400124261037643768376A1
:10179000C3760377437700F083FF00B908BD00F0FC
:1017A00086FAFBE7AC1100200064004008B50E4843
:1017B0000E4B03600323436000238360C3604FF438
:1017C000102202614FF40012426103760122427638
:1017D0008276C3760377437700F062FF00B908BDD5
:1017E00000F065FAFBE700BF8411002000680040AC
:1017F00010B58AB0002305930693079308930993C5
:101800000368454A934204D0444A93423CD00AB00C
:1018100010BD434A136801331360012B27D0002405
:101820000194404B1A6B42F008021A631B6B03F0E1
:1018300008030193019B0323059302220692089358
:101840000923099305A9384801F0CAFC224605215D
:10185000132001F08BFA132001F098FA224605219B
:10186000142001F083FA142001F090FACFE700234E
:1018700000932C4B1A6C42F000721A641B6C03F03C
:1018800000730093009BCAE700230293254B1A6C58
:1018900042F080621A641B6C03F080630293029B27
:1018A0001F4A136801331360012B28D000240494CD
:1018B0001C4B1A6B42F002021A631B6B03F002030B
:1018C0000493049B60230593022306930323089348
:1018D0000923099305A9154801F082FC2246052138
:1018E0003F2001F043FA3F2001F050FA2246052143
:1018F000402001F03BFA402001F048FA87E700233E
:101900000393084B1A6C42F000721A641B6C03F0CC
:1019100000730393039BC9E7006400400068004024
:101920008011002000380240000C024000040240F8
:1019300010B582B000240094164B1A6B42F40012CA
:101940001A631A6B02F400120092009A01941A6B47
:1019500042F480021A631B6B03F480030193019B22
:10196000224605210C2001F001FA0C2001F00EFAAC
:1019700022460521382001F0F9F9382001F006FA55
:10198000224605213B2001F0F1F93B2001F0FEF950
:1019900002B010BD0038024008B5012003F025FC5C
:1019A000FBE77047034B0360034B0B60802313601E
:1019B000704700BFD4130020D411002010B5A4B08C
:1019C0002D4C0DF1740CA646BEE80F00ACE80F00DC
:1019D0009EE807008CE8070000211DA803F0D2FB59
:1019E000264B18600DF1580C04F11C0EBEE80F00D8
:1019F000ACE80F009EE807008CE80700002116A85D
:101A000003F0C0FB1E4B18600DF13C0C04F1380EC6
:101A1000BEE80F00ACE80F009EE807008CE8070066
:101A200000210FA803F0AEFB164B18600DF1200C3F
:101A300004F1540EBEE80F00ACE80F009EE807006A
:101A40008CE80700002108A803F09CFB0E4B1860EF
:101A50000DF1040E04F1700CBCE80F00AEE80F00AD
:101A60009CE807008EE80700002101A803F08AFB2C
:101A7000064B186024B010BD3C6A000838140020E2
:101A800034140020301400202C14002028140020CE
:101A90002DE9F0438FB0002409940A940B940C9420
:101AA0000D9401944E4B1A6B42F002021A631A6BAA
:101AB00002F002020192019A02941A6B42F00802AB
:101AC0001A631A6B02F008020292029A03941A6BCC
:101AD00042F004021A631A6B02F004020392039AA2
:101AE00004941A6B42F001021A631A6B02F00102AD
:101AF0000492049A05941A6B42F480721A631A6B6A
:101B000002F480720592059A06941A6B42F0200244
:101B10001A631A6B02F020020692069A07941A6B57
:101B200042F080021A631A6B02F080020792079A51
:101B300008941A6B42F010021A631B6B03F0100337
:101B40000893089BDFF8A89022464021484601F000
:101B50003DFCDFF8A08001224FF4E051404601F047
:101B600035FC204F01221021384601F02FFC1E4E7B
:101B700001221146304601F029FC4023099301253A
:101B80000A950B950C9409A9484601F029FB4FF4DE
:101B9000E05309930A950B950C9409A9404601F06E
:101BA0001FFB102309930A950B9502240C9409A995
:101BB000384601F015FB302309934FF488130A933C
:101BC0000B9509A9094801F00BFB09950A950B959E
:101BD0000C9409A9304601F003FB0FB0BDE8F08377
:101BE00000380240000002400004024000080240A9
:101BF00000200240001C024008B50B480B4B03605C
:101C000047F23053436000238360C3604FF4804247
:101C1000026143618361C361036201F0DDFB00B9CE
:101C200008BD00F044F8FBE73C14002000580040D9
:101C300030B589B00023039304930593069307936B
:101C40000268134B9A4201D009B030BD00250195BE
:101C5000104C236B43F020032363236B03F020031A
:101C60000193019B032303931222049206930423FE
:101C7000079303A9084801F0B3FA0295236C43F4D3
:101C800080032364236C03F480030293029BDBE74D
:101C900000580040003802400014024008B50368B4
:101CA000B3F1804F00D008BD00F0D4FCFBE772B662
:101CB000FEE7000000B595B03022002108A804F02E
:101CC000D9FD00230393049305930693079301938F
:101CD000204A116C41F080511164126C02F0805264
:101CE0000192019A02931C4B1A6842F480421A60D6
:101CF0001B6803F480430293029B012308934FF473
:101D00008033099302230E934FF480020F92062230
:101D10001092A822119212930723139308A801F09E
:101D2000D1FC98B90F230393022304930023059356
:101D30004FF4A05306934FF480530793052103A853
:101D400001F010FF20B915B05DF804FBFFF7AFFFFD
:101D5000FFF7ADFF003802400070004008B500F00A
:101D60005FFCFFF7A7FFFFF793FEFFF7E1FDFFF72B
:101D7000FDFCFFF71BFD00F057FB00F0C3FA00F07D
:101D800063FAFFF739FF00F0CDFB00F007F800F031
:101D90000FFBFFF713FE03F0F0F9FEE708B50F485D
:101DA0000F4B03604FF48273436000238360C36072
:101DB00002220261012242614FF40072826110220C
:101DC000C2610362436283620A23C36201F0BEFF01
:101DD00000B908BDFFF76BFFFBE700BF50150020FF
:101DE000003001402DE9F04389B0002303930493B0
:101DF00005930693079302683F4B9A4202D009B0BD
:101E0000BDE8F08304460025009503F584335A6C41
:101E100042F480525A645A6C02F480520092009A42
:101E200001951A6B42F002021A631A6B02F0020269
:101E30000192019A02951A6B42F001021A631B6B20
:101E400003F001030293029B182303934FF002094E
:101E5000CDF810904FF00108CDF8148003270697B5
:101E60000526079603A9254801F0BAF980230393B4
:101E7000CDF81090CDF814800697079603A9204856
:101E800001F0AEF91F48204B03604FF0C063436080
:101E90008560C5604FF48063036145618561C561FC
:101EA0004FF400330362456200F0E8FFE8B9154BD8
:101EB000E3649C631548164B03604FF0C0634360B6
:101EC000402383600023C3604FF48062026143615A
:101ED0008361C3614FF400320262436200F0CEFFBF
:101EE00030B90A4BA3649C6389E7FFF7E0FEDEE7A5
:101EF000FFF7DDFEF5E700BF0030014000040240BF
:101F000000000240F01400201064024090140020F1
:101F10005864024000B583B0002200920D4B596C0A
:101F200041F480415964596C01F480410091009959
:101F30000192196C41F0805119641B6C03F08053BD
:101F40000193019B0F216FF0010000F00FFF03B020
:101F50005DF804FB0038024030B589B00446002328
:101F60000193224B1A6C42F001021A641B6C03F0BD
:101F700001030193019B02A903A801F0C9FE069B7E
:101F8000D3B901F0A5FE0346194AA2FB03239B0C1B
:101F9000013B18484FF08042026040F2E732C260D5
:101FA0004360002303618360836102F09FF905466B
:101FB00030B1284609B030BD01F08AFE4300E3E7A6
:101FC0000C4802F029F805460028F2D11C2000F048
:101FD000DDFE0F2C01D90125EBE7002221461C2054
:101FE00000F0C4FE044B1C60E3E700BF0038024071
:101FF00083DE1B43A81500200C000020FEE7FEE74F
:10200000FEE7FEE7FEE7704708B5024800F0FAFF7A
:1020100008BD00BFC816002008B5024800F02AFD20
:1020200008BD00BFAC11002008B5024800F022FD39
:1020300008BD00BFAC11002008B5034802F034F819
:10204000024802F031F808BD80160020F01500208B
:1020500008B5024802F028F808BD00BFA815002006
:1020600008B5024802F070FD08BD00BF2817002027
:1020700008B5024800F0C6FF08BD00BFF0140020FC
:1020800008B5024800F0BEFF08BD00BF9014002054
:1020900008B5024800F0EEFC08BD00BF8411002026
:1020A00008B5024800F0E6FC08BD00BF841100201E
:1020B000034AD2F8883043F47003C2F8883070477E
:1020C00000ED00E002680E4B9A4200D0704700B568
:1020D00083B00022019203F59C33596C41F0010159
:1020E00059645B6C03F001030193019B05211920E6
:1020F00000F03CFE192000F049FE03B05DF804FB3F
:102100000000014000B583B00368154A934205D032
:10211000144A93420FD003B05DF804FB00230093F0
:10212000114B1A6C42F004021A641B6C03F0040396
:102130000093009BEFE7002201920B4B596C41F496
:10214000003159645B6C03F400330193019B05215A
:10215000192000F00BFE192000F018FEDBE700BF8D
:1021600000080040004401400038024000B589B03A
:1021700000230393049305930693079303682B4A64
:10218000934208D02A4A93421DD02A4A934231D022
:1021900009B05DF804FB00230093274B1A6B42F053
:1021A00010021A631B6B03F010030093009B4FF4A3
:1021B00000730393022304930123079303A91F4889
:1021C00001F00EF8E4E7002301931B4B1A6B42F079
:1021D00008021A631B6B03F008030193019B4FF481
:1021E0008043039302230493079303A9144800F048
:1021F000F7FFCDE7002302930F4B1A6B42F0020268
:102200001A631B6B03F002030293029B4FF480736B
:102210000393022304930122059206930323079359
:1022200003A9084800F0DCFFB2E700BF000001404E
:102230000008004000440140003802400010024005
:10224000000C02400004024010B592B0002410942B
:10225000119409940A940B940C940D940E940F9479
:102260002022214601A804F005FB2448244B0360EA
:10227000A7234360846044F61F63C3600461446124
:10228000846102F05FF800282BD100231093119392
:1022900010A91A4802F046FA30BB602309934FF4A4
:1022A000FA630A9300220B920C920D920E920F92F7
:1022B00009A9124802F0AAF8C8B9002301930293B1
:1022C0000393049305934FF400520692089301A9D7
:1022D0000A4802F06DFA68B90848FFF747FF12B0E4
:1022E00010BDFFF7E4FCD0E7FFF7E1FCD5E7FFF70F
:1022F000DEFCE2E7FFF7DBFCEEE700BF8016002024
:102300000000014000B58FB000230A930B930C939B
:102310000D930893099301930293039304930593F8
:10232000069307932048214A02604360836045F288
:102330000722C2600361836101F0D8FF28BB4FF41C
:1023400080530A930AA9184802F0DBF800BB16482C
:1023500001F0F8FFF8B900230893099308A912487F
:1023600002F0E0F9D0B960230193002302930393B4
:102370000593082201A90C4802F048F888B90A48D8
:10238000FFF7F4FE0FB05DF804FBFFF790FCD6E713
:10239000FFF78DFCDBE7FFF78AFCDCE7FFF787FC44
:1023A000E1E7FFF784FCEAE7381600200008004068
:1023B00000B589B00023019302930393049305931E
:1023C000069307931648174A026040F2473242606C
:1023D000836040F2CF72C2600361836101F086FFC7
:1023E000A0B90F4801F0AEFF98B960230193002215
:1023F00002920392059201A9094802F007F858B920
:102400000748FFF7B3FE09B05DF804FBFFF74FFC88
:10241000E7E7FFF74CFCE8E7FFF749FCF0E700BF10
:10242000F01500200044014008B50B480B4B036039
:102430000B4B436000238360C3604FF480620261F2
:102440000C2242618361C36102F0C4FA00B908BD85
:10245000FFF72DFCFBE700BF2817002000480040D5
:10246000A086010030B589B000230393049305933F
:10247000069307930268274B9A4201D009B030BDFA
:1024800004460025019503F5F8331A6C42F48022C6
:102490001A641A6C02F480220192019A02951A6B56
:1024A00042F004021A631B6B03F004030293029BC5
:1024B0004FF44063039302230493032306930723FB
:1024C000079303A9144800F08BFE1448144B0360D3
:1024D0004FF0006343608560C5604FF48063036123
:1024E00045618561C5614FF400330362456200F0C8
:1024F000C5FC58B9094BA3639C6300220521272022
:1025000000F034FC272000F041FCB7E7FFF7CFFBD9
:10251000F0E700BF0048004000080240C816002055
:102520002860024008B50B484FF0A0430360042325
:1025300043600222C260002303618261C3610362BF
:102540004362C362036301F025F800B908BDFFF7D9
:10255000AEFBFBE76C17002030B589B00023039376
:1025600004930593069307930368B3F1A04F01D03A
:1025700009B030BD00250195124C236B43F00103D7
:102580002363236B03F001030193019B4FF4E0539A
:10259000039302230493032306930A23079303A9B7
:1025A000094800F01DFE636B43F0800363630295EE
:1025B000636C43F480436364636C03F4804302936D
:1025C000029BD5E70038024000000240DFF834D01B
:1025D0000D480E490E4A002302E0D458C45004337B
:1025E000C4188C42F9D30B4A0B4C002301E0136052
:1025F0000432A242FBD3FFF75BFD04F08DF9FFF735
:10260000ADFB7047000002200000002018000020F1
:10261000646B0008180000201C5D0020FEE700002D
:1026200008B50B4B1A6842F400721A601A6842F43B
:1026300080621A601A6842F480721A60032000F007
:1026400083FB0F20FFF788FCFFF764FC002008BD28
:10265000003C0240034A1168034B1B780B44136093
:10266000704700BF781C002008000020014B18684C
:10267000704700BF781C002038B50446FFF7F6FF0E
:102680000546B4F1FF3F02D0044B1B781C44FFF712
:10269000EDFF401BA042FAD338BD00BF0800002068
:1026A000002800F0A18038B5044690F82030D3B15E
:1026B0002268136843F001031360FFF7D7FF054654
:1026C00023685A6812F0010F10D1FFF7CFFF401BAB
:1026D0000A28F5D9636A43F400336362052384F85A
:1026E0002030012038BDFFF783F8E1E71A6822F0B7
:1026F00002021A60FFF7BAFF054623685A6812F013
:10270000020F0DD0FFF7B2FF401B0A28F5D9636A0C
:1027100043F400336362052384F820300120E1E7AD
:10272000227E012A3DD01A6822F080021A60637E60
:10273000012B3BD02268136823F040031360A37E73
:10274000012B39D02268136823F020031360E37E45
:10275000012B37D02268136843F010031360237FE6
:10276000012B35D02268136823F008031360637FC0
:10277000012B33D02268136823F004031360A3688D
:10278000E268134322691343626913436268013AA2
:1027900021681343CB6100206062012384F820305C
:1027A000A0E71A6842F080021A60C0E72268136846
:1027B00043F040031360C2E72268136843F020032C
:1027C0001360C4E72268136823F010031360C6E7A0
:1027D0002268136843F008031360C8E7226813688F
:1027E00043F004031360CAE70120704730B590F846
:1027F00020C00468A4680CF1FF3C5FFA8CFCBCF1BB
:10280000010F6BD814F0E05F62D0C4F3016CBCF12F
:10281000020F05D9436A43F400034362012062E0DA
:10282000012404FA0CF41C608B68002B3DD10D6868
:10283000CB68046843EA45550CF118031B01E550C9
:1028400003680C690CF1180E03EB0E135C600B7D32
:10285000012B35D0D17993791B0443EA0163517977
:1028600043EA012314790168234301EB0C11C1F8F9
:102870008C31D17893781B0443EA0163517843EAA1
:102880000123117802680B4302EB0C12C2F8883165
:1028900002680CF1180C4FEA0C1C52F80C3043F093
:1028A000010342F80C3000201DE04C6843EAC403E9
:1028B000CC6823430CF11804240105682B51BFE7B1
:1028C000036803EB0E13596841F480715960C1E746
:1028D000436A43F400134362012004E0436A43F473
:1028E00080234362012030BD90F82030013BDBB2F1
:1028F000012B01D9002070470368986810F08060B0
:1029000000D001209A6812F0006F00D001309B685F
:1029100013F0805FEFD00130704790F820C00CF1C9
:10292000FF3C5FFA8CFCBCF1010F00F2958030B4E3
:1029300051B90468E46814F0030F10D1436A43F4FA
:1029400000134362012077E00468246914F0030F48
:1029500005D1436A43F40013436201206CE001F1A6
:102960001B04240105682C5904F004049460002C15
:1029700064D101F11B04240105682C59640D146015
:10298000046801F11B0C4FEA0C1C54F80C4004F0D5
:102990000204D46004686444646804F00F041461A1
:1029A000046864446468C4F307249461046864445C
:1029B0006468240C5461026802EB0112D2F8B82159
:1029C0001A70026802EB0112D2F8B821C2F3072292
:1029D0005A70026802EB0112D2F8B821C2F3074222
:1029E0009A70026802EB0112D2F8B821120EDA7066
:1029F000026802EB0112D2F8BC211A71026802EBE4
:102A00000112D2F8BC21C2F307225A71026802EB0C
:102A10000112D2F8BC21C2F307429A71026802EB9C
:102A20000112D2F8BC21120EDA7179B90268D368AA
:102A300043F02003D360002030BC704701F11B0439
:102A4000240105682C59E408546099E70268136969
:102A500043F020031361EEE7436A43F480234362AB
:102A60000120704770477047704770477047704744
:102A7000704770472DE9F84F054603685C69D3F845
:102A800004809F68D3F80CB0D3F810A0D3F8189046
:102A900014F001063BD017F0010616D001229A600F
:102AA00017F0020F08D117F0040F0CD117F0080629
:102AB00006D04FF4805608E0FEF78CF8002604E0BC
:102AC000FFF7D0FF01E04FF4006617F4807F0DD0D0
:102AD0002B684FF480729A6017F4007F40F0868074
:102AE00017F4806F00F0868046F4005617F4803F9C
:102AF0000DD02B684FF480329A6017F4003F40F0FD
:102B0000838017F4802F00F0838046F4004614F091
:102B1000080F07D01BF0100F04D046F400762B6886
:102B20001022DA6014F0040F02D01BF0080F79D1E4
:102B300014F0020F04D02B68DB6813F0030F78D178
:102B400014F0400F07D01AF0100F04D046F480663E
:102B50002B6810221A6114F0200F02D01AF0080F0F
:102B60006BD114F0100F04D02B681B6913F0030F06
:102B70006AD114F4003F02D018F0100F68D114F499
:102B8000803F02D018F0080F69D114F4004F7AD0BA
:102B900018F0040F74D014F4807F04D019F0010FE2
:102BA00001D046F0010614F4007F04D019F0020FA2
:102BB00001D046F0020614F4806F04D019F0040F1F
:102BC00001D046F0040614F4006F59D019F07009D2
:102BD00056D0B9F1400F65D058D8B9F1200F5ED06A
:102BE000B9F1300F42D146F0200644E02846FEF706
:102BF00025F87BE717F4006F02D046F4804675E7AE
:102C00002846FFF730FF71E72846FEF74BF87EE7CE
:102C100017F4002F02D046F4803678E72846FFF7F5
:102C200023FF74E72B680822DA602846FFF71DFFB0
:102C30007EE72846FEF7A2F882E72B6808221A6191
:102C40002846FFF714FF8CE72846FFF70FFF90E7B1
:102C50002B6810225A602846FFF70AFF8FE72B687F
:102C600008225A602846FFF704FF8EE7B9F1100FDB
:102C700001D146F008062A68936923F07003936136
:102C80002B6804225A609EB9BDE8F88FB9F1500F45
:102C90000BD0B9F1600FEED146F48076EBE746F049
:102CA0001006E8E746F04006E5E746F08006E2E772
:102CB0006B6A33436B622846FEF728F8E4E790F826
:102CC0002030013BDBB2012B05D9436A43F480235A
:102CD000436201207047002343621846704700009A
:102CE000002808DB0901C9B200F1604000F561402D
:102CF00080F80013704700F00F000901C9B2014BC2
:102D00001954704714ED00E000B500F00700C0F161
:102D1000070CBCF1040F28BF4FF0040C031D062B59
:102D20000FD9C31E4FF0FF3E0EFA0CF021EA00014E
:102D300099400EFA03FE22EA0E0241EA02005DF813
:102D400004FB0023EEE70000074AD36823F4E063A6
:102D50001B041B0C000200F4E060034343F0BF635C
:102D600043F40033D360704700ED00E010B5044633
:102D7000054BD868C0F30220FFF7C6FF0146204686
:102D8000FFF7AEFF10BD00BF00ED00E0002807DB3D
:102D900000F01F02400901239340024A42F820300C
:102DA000704700BF00E100E010B40368D9B21039E9
:102DB0000C4AA2FB014212090B4CA25CC2655F29BE
:102DC00009D923F47F7323F0030304338365806DF3
:102DD0005DF8044B704723F47F7323F0030383658E
:102DE000F5E700BFABAAAAAA406B0008836A826914
:102DF00092B9012B0AD0022B02D00BB100207047F0
:102E0000C36A13F0807F28D100207047C36AB3F1F2
:102E1000C07F24D000207047B2F5005F09D0022B9C
:102E200025D9032B25D1C36A13F0807F23D100203D
:102E30007047032B03D8DFE803F01404140A0020C2
:102E40007047C36A13F0807F0DD100207047C36ABA
:102E5000B3F1C07F09D000207047012070470120E6
:102E60007047012070470120704701207047012002
:102E700070470020704701207047000070B504467D
:102E8000FFF7F4FB002C5BD00546022384F83530B5
:102E9000002384F834302268136823F001031360A0
:102EA00023681A6812F0010F0AD0FFF7DFFB431BFB
:102EB000052BF5D920236365032084F8350070BD08
:102EC0001A68204911406268A0680243E068024322
:102ED0002069024360690243A0690243E06902433A
:102EE000206A02430A43616A04291ED01A602668D8
:102EF000756925F00705636A1D43042B07D1A36A92
:102F00001D43E36A1BB12046FFF770FF90B975615E
:102F10002046FFF749FFE26D3F2393408360002086
:102F20006065012384F83530C9E7E16A206B01430D
:102F30000A43DBE740236365012084F83500BEE7E0
:102F40000120BCE73F8010F070B50446866DFFF7A6
:102F50008DFB94F83530DBB2022B06D080236365FD
:102F6000002384F83430012070BD054622681368C0
:102F700023F0160313602268536923F08003536122
:102F8000236CE3B12268136823F0080313602268FE
:102F9000136823F00103136023681B6813F0010F0B
:102FA00011D0FFF763FB431B052BF5D92023636585
:102FB000032084F83500002384F83430D4E7A36C70
:102FC000002BDFD1E3E7E26D3F239340B3600123A1
:102FD00084F83530002084F83400C5E790F83530A7
:102FE000DBB2022B03D08023436501207047052309
:102FF00080F835300268136823F001031360002065
:1030000070470000F0B583B0044600230193724B73
:103010001D68724BA3FB0535AD0A876D3E68C26D16
:1030200008239340334210D003681A6812F0040F4B
:103030000BD01A6822F004021A60C26D0823934074
:10304000BB60436D43F001034365E26D0123934090
:10305000334209D02268526912F0800F04D0BB605D
:10306000636D43F002036365E26D042393403342D2
:1030700009D02268126812F0020F04D0BB60636DA1
:1030800043F004036365E26D10239340334224D080
:103090002268126812F0080F1FD0BB6023681A68FC
:1030A00012F4802F0DD01B6813F4002F04D1236C71
:1030B0009BB12046984710E0A36C73B12046984717
:1030C0000BE01A6812F4807F03D11A6822F008021C
:1030D0001A60236C0BB120469847E26D2023934081
:1030E000334255D02268126812F0100F50D0BB60E6
:1030F00094F83530DBB2052B0ED023681A6812F431
:10310000802F33D01B6813F4002F2AD1636C002B5F
:103110003ED0204698473BE02268136823F0160310
:1031200013602268536923F080035361236CA3B1B9
:103130002268136823F008031360E26D3F23934075
:10314000BB60012384F83530002384F83430236DCC
:10315000002B3FD0204698473CE0A36C002BE7D1E2
:10316000EBE7E36BA3B12046984711E01A6812F42D
:10317000807F09D11A6822F010021A60012384F8B6
:103180003530002384F83430E36B0BB12046984788
:10319000636DFBB1636D13F0010F17D0052384F845
:1031A00035302268136823F001031360019B01335B
:1031B0000193AB4204D823681B6813F0010FF5D1CB
:1031C000012384F83530002384F83430E36C0BB1EC
:1031D0002046984703B0F0BD04000020B5814E1B87
:1031E00000230F2B00F2E98070B582B065E085689E
:1031F0004FEA430E032404FA0EF425EA0405CC68D2
:1032000004FA0EF42C438460446824EA02044A68F9
:10321000C2F300129A40224342605CE0DC080834AA
:1032200050F8242003F00705AD004FF00F0E0EFA02
:1032300005FE22EA0E0E0A69AA4042EA0E0240F892
:1032400024205CE0072200E0002202FA0EF22A436A
:1032500002345A4D45F82420594A94686FEA0C020A
:1032600024EA0C054E6816F4801F01D04CEA0405D0
:10327000534CA560E46802EA04054E6816F4001F8A
:1032800001D04CEA04054E4CE560646802EA04058E
:103290004E6816F4003F01D04CEA0405484C6560C6
:1032A000246822404D6815F4803F01D04CEA0402A6
:1032B000434C226001330F2B7DD801229A400C68C9
:1032C00004EA020C32EA0404F4D14C6804F003046A
:1032D000013C012C8BD94A6802F00302032A09D071
:1032E000C4685D000322AA4024EA02048A68AA4056
:1032F0002243C2604A6802F00302022A8ED00468A8
:103300004FEA430E032202FA0EF224EA02044A684C
:1033100002F0030202FA0EF2224302604A6812F43B
:10332000403FC7D000220192264A546C44F48044A6
:103330005464526C02F480420192019A9C08A51CCC
:103340001E4A52F8255003F0030E4FEA8E0E0F224C
:1033500002FA0EF225EA02051B4A90423FF474AFCE
:1033600002F5806290421AD002F58062904218D035
:1033700002F58062904216D002F58062904214D02D
:1033800002F58062904212D002F58062904210D025
:1033900002F5806290423FF455AF082255E70122C2
:1033A00053E7022251E703224FE704224DE70522AB
:1033B0004BE7062249E702B070BD70470038014074
:1033C000003C014000380240000002400AB1816127
:1033D0007047090481617047002800F0CC8070B507
:1033E000044690F83D30002B77D0242384F83D30FC
:1033F0002268136823F0010313602268136843F402
:10340000004313602268136823F40043136000F044
:103410005FFC62685A4B9A4264D85A4B98428CBF00
:1034200000230123002B40F0A8805749A1FB003165
:103430008B0C25686A6822F03F0242EA91426A607A
:1034400021680A6A22F03F0266684D4DAE424FD8AD
:10345000013313430B622168CA6922F44F4222F000
:10346000FF026568464B9D424CD8431E6D00B3FB7E
:10347000F5F3013340F6FC70034278D0C3F30B033D
:103480001A43CA6121680B6823F0C003E269206A0D
:10349000024313430B6021688B6823F4034323F03A
:1034A000FF032269E068024313438B602168CB6805
:1034B00023F0FF036269A06902431343CB602268D3
:1034C000136843F00103136000202064202384F874
:1034D0003D30206384F83E0070BD80F83C30FEF73C
:1034E000A7FB82E7294B98428CBF0023012399E771
:1034F0004FF4967505FB03F3254DA5FB03539B097C
:103500000133A6E7A668BEB9431E05EB450CB3FB25
:10351000FCF30133C3F30B03B3FA83F35B0943BB3F
:10352000C6B9431E05EB4505B3FBF5F30133C3F301
:103530000B0343F40043A3E7431E05EB850C0CEBA0
:103540008C0CB3FBFCF30133C3F30B03B3FA83F32B
:103550005B09E4E7431E05EB850505EB8505B3FB39
:10356000F5F30133C3F30B0343F4404388E704232B
:1035700086E7012384E7012070470120ACE700BF04
:10358000A08601007F841E0083DE1B43FF083D00F0
:10359000D34D621070B58AB0002800F090800546C7
:1035A000046890F8BD343BB3032385F8BD34E36B66
:1035B00013F4807F01D100232B61286801F06FFC98
:1035C0002C4654F8106BEC460FCCACE80F000FCC37
:1035D000ACE80F0094E803008CE803002B1D0ECB31
:1035E000304601F017FC044658B1022385F8BD347B
:1035F000012420460AB070BD80F8BC34FEF7ACFF51
:10360000D2E70021286801F081FD234616E003EB94
:10361000C30205EB8202012182F83D1082F83C30A2
:10362000A2F84430002182F840109164D16403EB89
:10363000C30205EB820251650133DBB269688B423C
:10364000E5D316E004EBC40305EB8303002283F803
:103650007D2283F87C4283F88022C3F88822C3F855
:103660008C2204EBC40305EB8303C3F894220134DA
:10367000E4B2A142E6D82C4654F8106BEC460FCCCD
:10368000ACE80F000FCCACE80F0094E803008CE826
:1036900003002B1D0ECB304601F05EFC044620B12A
:1036A000022385F8BD340124A3E7002385F83830D0
:1036B000012385F8BD34286801F016FD99E701243F
:1036C00097E70000002800F0E08170B582B0044662
:1036D000036813F0010F3BD09F4B9B6803F00C0372
:1036E000042B2CD09C4B9B6803F00C03082B21D09F
:1036F0006368B3F5803F4FD0B3F5A02F52D0964BFF
:103700001A6822F480321A601A6822F480221A6041
:103710006368002B50D0FEF7A9FF05468E4B1B684F
:1037200013F4003F14D1FEF7A1FF401B6428F5D924
:103730000320B1E1884B5B6813F4800FD8D0864B2F
:103740001B6813F4003F03D06368002B00F09F81D7
:10375000236813F0020F54D07F4B9B6813F00C0FBB
:103760003ED07D4B9B6803F00C03082B33D0E368FD
:10377000002B68D0794B01221A60FEF777FF0546CF
:10378000754B1B6813F0020F54D1FEF76FFF401BFF
:103790000228F5D903207FE16F4A136843F4803390
:1037A0001360B5E76C4B1A6842F480221A601A68FD
:1037B00042F480321A60ABE7FEF758FF0546664BCD
:1037C0001B6813F4003FC3D0FEF750FF401B642872
:1037D000F5D9032060E1604B5B6813F4800FC6D11C
:1037E0005D4B1B6813F0020F03D0E368012B40F020
:1037F0005081594A136823F0F803216943EAC10351
:103800001360236813F0080F42D063696BB3534B06
:103810000122C3F8802EFEF729FF05464E4B5B6F51
:1038200013F0020F34D1FEF721FF401B0228F5D917
:10383000032031E1484A136823F0F803216943EA81
:10384000C1031360DDE7454B00221A60FEF70EFF4F
:103850000546414B1B6813F0020FD2D0FEF706FF5E
:10386000401B0228F5D9032016E13C4B0022C3F887
:10387000802EFEF7FBFE0546374B5B6F13F0020F01
:1038800006D0FEF7F3FE401B0228F5D9032003E122
:10389000236813F0040F77D02F4B1B6C13F0805F5D
:1038A00033D1002301932C4B1A6C42F080521A64DE
:1038B0001B6C03F080530193019B0125284B1B686F
:1038C00013F4807F23D0A368012B34D0052B38D08C
:1038D000214B1A6F22F001021A671A6F22F00402BC
:1038E0001A67A368002B3DD0FEF7C0FE06461A4BB0
:1038F0001B6F13F0020F46D1FEF7B8FE801B41F29A
:1039000088339842F3D90320C6E00025D6E7144A4D
:10391000136843F480731360FEF7A8FE0646104B4D
:103920001B6813F4807FCED1FEF7A0FE801B022817
:10393000F5D90320B0E0084A136F43F00103136781
:10394000CFE7054B1A6F42F004021A671A6F42F074
:1039500001021A67C5E700BF003802400000474275
:1039600000700040FEF782FE0646524B1B6F13F0BC
:10397000020F08D0FEF77AFE801B41F2883398428E
:10398000F3D9032088E0EDB9A369002B00F0838010
:10399000484A926802F00C02082A51D0022B17D034
:1039A000454B00221A66FEF761FE0446414B1B6838
:1039B00013F0007F42D0FEF759FE001B0228F5D914
:1039C000032069E03B4A136C23F080531364DBE768
:1039D000394B00221A66FEF749FE0546354B1B6837
:1039E00013F0007F06D0FEF741FE401B0228F5D9F8
:1039F000032051E0E369226A1343626A43EA8213B7
:103A0000A26A5208013A43EA0243E26A43EA0263C5
:103A1000284A5360284B01221A66FEF727FE044607
:103A2000244B1B6813F0007F06D1FEF71FFE001B1E
:103A30000228F5D903202FE000202DE000202BE004
:103A4000012B2BD01B4B5B6803F48001E269914290
:103A500026D103F03F02216A8A4223D1616A47F6E8
:103A6000C0721A40B2EB811F1ED103F44031A26A2A
:103A70005208013AB1EB024F18D103F07063E26AC9
:103A8000B3EB026F14D1002006E001207047012043
:103A900002E0012000E0002002B070BD0120FBE741
:103AA0000120F9E70120F7E70120F5E70120F3E71E
:103AB0000120F1E7003802400000474208B5264BDC
:103AC0009B6803F00C03042B41D0082B41D1224BFF
:103AD0005A6802F03F025B6813F4800F12D01E4B4D
:103AE0005968C1F388111D480023A1FB0001FCF7B0
:103AF0004FFB194B5B68C3F3014301335B00B0FB21
:103B0000F3F027E0144B5868C0F388104FEA401CCC
:103B1000BCEB000C6EEB0E0E4FEA8E1343EA9C6377
:103B20004FEA8C11B1EB0C0163EB0E03DB0043EAAF
:103B30005173C90011EB000C43F1000399020023FB
:103B40004FEA8C2041EA9C51FCF722FBD1E7034865
:103B500000E0034808BD00BF00380240001BB7006A
:103B60000024F400002800F09B8070B50D46044648
:103B70004F4B1B6803F007038B4208D2CBB24C4A71
:103B80001370136803F007038B4240F08B802368A7
:103B900013F0020F17D013F0040F04D0454A9368B6
:103BA00043F4E0539360236813F0080F04D0414AB4
:103BB000936843F4604393603E4A936823F0F003B4
:103BC000A1680B439360236813F0010F32D0636840
:103BD000012B21D09A1E012A25D9364A126812F0EB
:103BE000020F61D033498A6822F0030213438B60CD
:103BF000FEF73CFD06462F4B9B6803F00C03626802
:103C0000B3EB820F16D0FEF731FD801B41F28833F3
:103C10009842F0D9032042E0264A126812F4003F8D
:103C2000E0D101203BE0234A126812F0007FD9D195
:103C3000012034E01E4B1B6803F00703AB4207D999
:103C4000EAB21B4B1A701B6803F00703AB422DD17D
:103C5000236813F0040F06D0164A936823F4E05348
:103C6000E1680B439360236813F0080F07D0114AF3
:103C7000936823F46043216943EAC1039360FFF72B
:103C80001DFF0C4B9B68C3F303130B4AD35CD84056
:103C90000A4B18600A4B1868FEF75EF9002070BDE9
:103CA000012070470120FAE70120F8E70120F6E73C
:103CB000003C024000380240306B00080400002045
:103CC0000C000020014B1868704700BF0400002062
:103CD00008B5FFF7F7FF044B9B68C3F38223034A41
:103CE000D35CD84008BD00BF00380240286B0008F4
:103CF00008B5FFF7E7FF044B9B68C3F34233034A61
:103D0000D35CD84008BD00BF00380240286B0008D3
:103D10000F2303600B4B9A6802F0030242609A681B
:103D200002F0F00282609A6802F4E052C2609B687E
:103D3000DB0803F4E0530361034B1B6803F0070344
:103D40000B60704700380240003C024000285AD007
:103D500010B50446436A33B94368B3F5827F05D092
:103D60000023C36102E00023036143610023A362D7
:103D700094F85130002B40D0022384F8513022684F
:103D8000136823F040031360636803F48273A2682E
:103D900002F404421343E26802F40062134322690E
:103DA00002F002021343626902F001021343A269A6
:103DB00002F400721343E26902F038021343226AEC
:103DC00002F080021343A26A02F4005221681343F6
:103DD0000B60638B03F00403626A02F01002216837
:103DE00013434B602268D36923F40063D36100203E
:103DF0006065012384F8513010BD84F850302046AE
:103E0000FDF7F0FFB8E701207047000030B4036A07
:103E100023F001030362036A4268846924F0730C8F
:103E20000C6844EA0C0423F0020C8B6843EA0C0390
:103E3000114DA84203D005F58065A84205D123F0B5
:103E40000803CD682B4323F004030B4DA84203D095
:103E500005F58065A84207D122F440724D6945EA14
:103E6000020C8A6942EA0C02426084614A68426339
:103E7000036230BC704700BF0000014030B4036AE9
:103E800023F480730362036A4268C46924F0730CEC
:103E90000C6844EA0C0523F400738C6843EA04239D
:103EA000114CA04203D004F58064A04206D123F453
:103EB0000063CC6843EA042323F480630A4CA042E5
:103EC00003D004F58064A04207D122F440524C692B
:103ED00042EA04128C6942EA04124260C5614A68EF
:103EE000C263036230BC70470000014030B4036A13
:103EF00023F480530362036A4468C26922F4E642F1
:103F00000D6842EA052223F400538D6843EA053325
:103F1000094DA84203D005F58065A84204D124F4D8
:103F200080444D6944EA85144460C2614A68026471
:103F3000036230BC704700BF0000014010B4036A48
:103F4000046A24F001040462846924F0F00C4CEA51
:103F5000021223F00A030B43826103625DF8044BF3
:103F6000704710B4036A23F0100303628469036A84
:103F700024F4704C4CEA023223F0A00343EA01130C
:103F8000826103625DF8044B7047836823F070031D
:103F90000B4343F0070383607047000090F83D3007
:103FA000DBB2012B32D1022380F83D300368194A7D
:103FB000934220D0B3F1804F1DD0A2F57C429342B2
:103FC00019D002F58062934215D002F580629342C7
:103FD00011D002F5784293420DD002F5705293420F
:103FE00009D0A2F59432934205D01A6842F001023A
:103FF0001A60002070479A6802F00702062A07D06C
:104000001A6842F001021A600020704701207047D0
:10401000002070470000014090F83D30DBB2012BDA
:1040200037D1022380F83D300268D36843F00103A2
:10403000D3600368194A934220D0B3F1804F1DD05A
:10404000A2F57C42934219D002F58062934215D0CA
:1040500002F58062934211D002F5784293420DD06E
:1040600002F57052934209D0A2F59432934205D0E2
:104070001A6842F001021A60002070479A6802F044
:104080000702062A07D01A6842F001021A600020CF
:104090007047012070470020704700BF00000140BA
:1040A000704770477047704710B5044603681A6937
:1040B00012F0020F11D0DA6812F0020F0DD06FF07B
:1040C00002021A610123037703689B6913F0030F4F
:1040D00070D0FFF7E6FF0023237723681A6912F0F8
:1040E000040F12D0DA6812F0040F0ED06FF0040241
:1040F0001A610223237723689B6913F4407F5FD002
:104100002046FFF7CEFF0023237723681A6912F0B9
:10411000080F12D0DA6812F0080F0ED06FF0080204
:104120001A61042323772368DB6913F0030F4ED051
:104130002046FFF7B6FF0023237723681A6912F0A1
:10414000100F12D0DA6812F0100F0ED06FF01002BC
:104150001A61082323772368DB6913F4407F3DD07D
:104160002046FFF79EFF0023237723681A6912F089
:10417000010F03D0DA6812F0010F36D123681A69F3
:1041800012F0800F03D0DA6812F0800F34D1236868
:104190001A6912F0400F03D0DA6812F0400F32D1E2
:1041A00023681A6912F0200F03D0DA6812F0200F8A
:1041B00030D110BDFFF774FF2046FFF773FF8AE789
:1041C0002046FFF76DFF2046FFF76CFF9BE7204678
:1041D000FFF766FF2046FFF765FFACE72046FFF7D5
:1041E0005FFF2046FFF75EFFBDE76FF001021A6137
:1041F0002046FDF753FDC1E76FF080021A612046AB
:1042000000F000FBC3E76FF040021A612046FFF7A1
:104210004AFFC5E76FF020021A61204600F0F1FA6C
:10422000C7E700000368304A904212D0B0F1804FD7
:104230000FD0A2F57C4290420BD002F580629042F2
:1042400007D002F58062904203D002F57842904296
:1042500003D123F070034A681343234A90422AD0C3
:10426000B0F1804F27D0A2F57C42904223D002F5D6
:10427000806290421FD002F5806290421BD002F50E
:104280007842904217D002F57052904213D002F556
:10429000806290420FD002F5806290420BD0A2F56E
:1042A0009832904207D002F58062904203D002F526
:1042B0008062904203D123F44073CA68134323F011
:1042C00080034A69134303608B68C3620B6883628F
:1042D000054B984203D003F58063984201D10B69E6
:1042E00003630123436170470000014040B310B5F0
:1042F000044690F83D30F3B1022384F83D30214666
:1043000051F8040BFFF78EFF012384F8463084F840
:104310003E3084F83F3084F8403084F8413084F8EF
:10432000423084F8433084F8443084F8453084F8CF
:104330003D30002010BD80F83C30FDF7E3FEDBE7A8
:104340000120704740B310B5044690F83D30F3B1FA
:10435000022384F83D30214651F8040BFFF762FF39
:10436000012384F8463084F83E3084F83F3084F8E6
:10437000403084F8413084F8423084F8433084F887
:10438000443084F8453084F83D30002010BD80F87A
:104390003C30FDF797FEDBE70120704730B4036A3D
:1043A00023F010030362036A4468826922F4E64240
:1043B0000D6842EA052223F020038D6843EA0513C5
:1043C000114DA84203D005F58065A84206D123F01F
:1043D0008003CD6843EA051323F040030A4DA84249
:1043E00003D005F58065A84207D124F440644D69E7
:1043F00044EA85048D6944EA8504446082614A6820
:104400008263036230BC70470000014038B590F809
:104410003C30012B66D004460D46012380F83C3029
:104420000C2A5AD8DFE802F0075959591B59595933
:104430003059595944000068FFF7E8FC2268936935
:1044400043F0080393612268936923F004039361A6
:104450002268936929690B43936100203EE000685C
:10446000FFF79CFF2268936943F40063936122681D
:10447000936923F48063936122689369296943EA0D
:1044800001239361002029E00068FFF7F7FC226810
:10449000D36943F00803D3612268D36923F004038E
:1044A000D3612268D36929690B43D361002015E0E9
:1044B0000068FFF71BFD2268D36943F40063D361F2
:1044C0002268D36923F48063D3612268D3692969A0
:1044D00043EA0123D361002000E00120002384F897
:1044E0003C3038BD0220FCE710B4846824F47F4CD3
:1044F00042EA03220A4342EA0C0282605DF8044B5E
:10450000704790F83C30012B78D010B50446012359
:1045100080F83C30022380F83D300268936823F431
:104520007F4323F0770393600B68602B4CD029D82E
:10453000402B54D00CD9502B22D1CA68496800684E
:10454000FFF7FCFC50212068FFF71FFD002005E06D
:10455000202B0DD009D9302B0AD00120012384F85B
:104560003D30002384F83C3010BD0BB1102B05D139
:1045700019462068FFF709FD0020EFE70120EDE76D
:104580000120EBE7B3F5805F34D0B3F5005F0CD1C9
:10459000CB684A6889680068FFF7A6FF22689368BD
:1045A00043F4804393600020D8E7702B24D1CB687C
:1045B0004A6889680068FFF797FF2268936843F0AC
:1045C000770393600020C9E7CA6849680068FFF76D
:1045D000C8FC60212068FFF7D8FC0020BEE7CA684D
:1045E00049680068FFF7AAFC40212068FFF7CDFC6E
:1045F0000020B3E70020B1E70120AFE702207047B9
:1046000001F01F014FF0010C0CFA01FC036A23EAD0
:104610000C030362036A8A4013430362704700007D
:1046200010B504460846002942D194F83E30DBB26A
:10463000013B18BF0123002B6ED1002851D102236A
:1046400084F83E30012201462068FFF7D9FF236835
:10465000334A934203D002F58062934203D15A6CED
:1046600042F400425A6423682D4A934249D0B3F180
:10467000804F46D0A2F57C42934242D002F5806240
:1046800093423ED002F5806293423AD002F57842DE
:10469000934236D002F57052934232D0A2F5943252
:1046A00093422ED01A6842F001021A60002032E0D4
:1046B000042908D008290DD094F84130DBB2013B21
:1046C00018BF0123B7E794F83F30DBB2013B18BFB6
:1046D0000123B0E794F84030DBB2013B18BF01235F
:1046E000A9E7042805D0082807D0022384F8413020
:1046F000A8E7022384F83F30A4E7022384F840307F
:10470000A0E79A6802F00702062A07D01A6842F06A
:1047100001021A60002010BD0120FCE70020FAE72A
:104720000000014090F83C20012A3DD010B403461F
:10473000012280F83C20022280F83D200268506867
:10474000946820F0700C086840EA0C0050601A6809
:10475000164882421AD0B2F1804F17D0A0F57C40A3
:10476000824213D000F5806082420FD000F5806055
:1047700082420BD000F57840824207D000F570509D
:10478000824203D0A0F59430824204D124F0800408
:10479000496821439160012283F83D20002083F87D
:1047A0003C005DF8044B7047022070470000014058
:1047B000024690F83C30012B21D0012380F83C3098
:1047C000CB6823F440738868034323F4806348680C
:1047D000034323F400630868034323F48053086908
:1047E000034323F400534869034323F48043C96916
:1047F0000B4311684B64002082F83C007047022094
:10480000704770477047026802F10C0353E8003F9D
:1048100023F490730C3242E800310029F3D102688E
:1048200002F1140353E8003F23F00103143242E87D
:1048300000310029F3D1036B012B05D0202380F830
:104840003E30002303637047026802F10C0353E813
:10485000003F23F010030C3242E800310029F3D16D
:10486000ECE790F83D30DBB2212B01D002207047FD
:104870008368B3F5805F17D0036A5A1C02621A7806
:1048800003685A60C38C9BB2013B9BB2C3844BB993
:104890000268D36823F08003D3600268D36843F0D2
:1048A0004003D360002070470369002BE4D1036A02
:1048B0001B880268C3F308035360036A0233036270
:1048C000E0E7000010B504460268136923F4405382
:1048D000C1680B431361836802691A4343691A4331
:1048E000C3691A430168CB6823F4164323F00C0311
:1048F0001343CB600268536923F4407381690B430F
:1049000053610368314A934206D002F580629342B4
:1049100002D0FFF7DDF901E0FFF7EAF9E369B3F54B
:10492000004F29D00021031849411B1841F1000113
:10493000C90041EA5371DB00181863684FEA83022B
:104940004FEA937341F10001FBF722FC204AA2FBDE
:1049500000314909642303FB11031B013233A2FB1D
:1049600003235B0903F0F00202EB011203F00F03D3
:10497000216813448B6010BD0023021843EB030130
:10498000121841F10001C90041EA5271D200101819
:1049900041F10001626892185B41FBF7F9FB0C4A98
:1049A000A2FB00314909642303FB1103DB0032330E
:1049B000A2FB03235B095A0002F4F87202EB011216
:1049C00003F00703216813448B60D4E70010014013
:1049D0001F85EB5158B310B5044690F83D300BB32A
:1049E000242384F83D302268D36823F40053D36035
:1049F0002046FFF767FF2268136923F49043136191
:104A00002268536923F02A0353612268D36843F470
:104A10000053D36000202064202384F83D3084F8C4
:104A20003E3010BD80F83C30FDF71CFDD8E701207A
:104A30007047704708B50168CA6822F04002CA6032
:104A4000202280F83D20FFF7F4FF002008BD7047CA
:104A5000704708B5806B0023C385C384FFF7F8FF58
:104A600008BD704790F83E30DBB2222B67D18368D7
:104A7000B3F5805F4DD0826AB3F5805F04D0002B20
:104A800054D10369002B51D103685B681370836AAA
:104A900001338362C38D9BB2013B9BB2C385002B64
:104AA0004FD100B583B00268D36823F02003D360F0
:104AB0000268D36823F48073D3600268536923F0DB
:104AC00001035361202380F83E30036B012B33D167
:104AD00000230363026802F10C0353E8003F23F054
:104AE00010030C3242E800310029F3D103681A6840
:104AF00012F0100F06D0002201921A6801925B6832
:104B00000193019B818DFFF7ACFF002003B05DF89E
:104B100004FB0269002AAED1826A03685B68C3F3B2
:104B200008031380836A02338362B3E703685B6818
:104B300003F07F031370AAE7FFF789FFE5E7022080
:104B4000704700207047000010B582B0044602682C
:104B50001368D068516913F00F0F09D113F0200FBB
:104B60000CD010F0200F09D02046FFF77BFF16E095
:104B700011F0010115D110F4907F12D1216B0129A0
:104B800079D013F0800F03D010F0800F40F0108127
:104B900013F0400F03D010F0400F40F00D8102B031
:104BA00010BD13F0010F06D010F4807F03D0226CEB
:104BB00042F00102226413F0040F04D019B1226CF8
:104BC00042F00202226413F0020F04D019B1226CE9
:104BD00042F00402226413F0080F07D010F0200FF7
:104BE00000D119B1226C42F008022264226C002A22
:104BF000D5D013F0200F02D010F0200F29D1236858
:104C00005B6903F04003226C12F0080F00D163B31C
:104C10002046FFF7F8FD23685B6913F0400F20D0B2
:104C2000226802F1140353E8003F23F040031432DA
:104C300042E800310029F3D1A36B73B1604A1A65D1
:104C4000A06BFEF7CBF90028A9D0A06B036D9847A5
:104C5000A5E72046FFF706FFD1E72046FFF7F8FE5D
:104C60009DE72046FFF7F4FE99E72046FFF7F0FEA8
:104C70000023236493E713F0100F82D010F0100F7D
:104C80003FF47FAF002301931368019353680193AE
:104C9000019B536913F0400F50D0A26B13685B68FF
:104CA0009BB2002B3FF47BAFA18D99427FF677AF8B
:104CB000E385D369B3F5807F37D0226802F10C0316
:104CC00053E8003F23F480730C3242E8003100299E
:104CD000F3D1226802F1140353E8003F23F00103EB
:104CE000143242E800310029F3D1226802F11403A2
:104CF00053E8003F23F04003143242E8003100291A
:104D0000F3D1202384F83E3000232363226802F18C
:104D10000C0353E8003F23F010030C3242E800314B
:104D20000029F3D1A06BFEF70FF9A18DE38D9BB2A3
:104D3000C91A89B22046FFF794FE30E7A18DE38DB2
:104D40009BB2C91A89B2E38D9BB2002B3FF427AF07
:104D500000293FF424AF226802F10C0353E8003F1E
:104D600023F490730C3242E800300028F3D122681B
:104D700002F1140353E8003F23F00103143242E828
:104D800000300028F3D1202384F83E300023236331
:104D9000226802F10C0353E8003F23F010030C32A9
:104DA00042E800300028F3D12046FFF75AFEF6E62D
:104DB0002046FFF756FDF2E62046FFF73BFEEEE603
:104DC000534A000882B000230193019B01330193F1
:104DD000019A0F4B9A4215D80369002BF5DA00238C
:104DE0000193036943F001030361019B01330193C4
:104DF000019A074B9A4208D8036913F0010FF4D1C6
:104E0000002000E0032002B070470320FBE700BF52
:104E1000400D030084B010B5044603A880E80E00DE
:104E2000089B012B1FD1A36B23F48033A363E3689A
:104E300023F4840323F04003E360E36823F4401386
:104E4000E3600F9B012B09D02046FFF7BBFF069BB9
:104E5000012B1BD0BDE8104004B07047E36843F459
:104E60008013E360F0E7E36843F04003E36020462B
:104E7000FFF7A8FF0C9B23B9A36B43F48033A36314
:104E8000E5E7A36B23F48033A363E0E7A36843F073
:104E90000603A360A36843F02003A360DAE78368F6
:104EA00023F00103836000207047000082B00023DC
:104EB0000193019B01330193019A0F4B9A4215D83C
:104EC0000369002BF5DA00230193890141F02001E9
:104ED0000161019B01330193019A074B9A4208D863
:104EE000036913F0200FF4D1002000E0032002B08A
:104EF00070470320FBE700BF400D030082B0002392
:104F00000193019B01330193019A0E4B9A4213D8EE
:104F10000369002BF5DA0023019310230361019B41
:104F200001330193019A074B9A4208D8036913F0A1
:104F3000100FF4D1002000E0032002B070470320DE
:104F4000FBE700BF400D0300D0F800381943C0F85C
:104F5000001800207047000084B02DE9F04104469D
:104F600007A880E80E00002306E003F1400204EBEE
:104F700082020021516001330E2BF6D9119F27BB0D
:104F8000D4F8043843F00203C4F80438A36B43F4A4
:104F90000013A363A36B23F40023A363A36B23F485
:104FA0008023A3630023C4F8003E04F50065D4F811
:104FB0000038C4F800380C9B012B14D1099B6BB945
:104FC00000212046FFF7C0FF11E0A36B23F400137C
:104FD000A363A36B43F40023A363E3E7012120460B
:104FE000FFF7B2FF03E003212046FFF7ADFF1021DA
:104FF0002046FFF75BFF804608B14FF001082046CE
:10500000FFF77CFF08B14FF0010800232B616B61B3
:10501000EB610AE0C3B94FF00060C2F8000900225A
:105020000A614FF67F328A6001330799994210D99D
:1050300004EB431202F51061D2F800090028E9DB05
:105040000020C2F80009EAE74FF09040C2F80009DA
:10505000E5E700230AE0C3B14FF0904CC2F800CB63
:10506000002202614FF67F3282600133994211D9EA
:1050700004EB431202F53060D2F8006B002EEADB3D
:105080004FF0000CC2F800CBEAE74FF0006CC2F81A
:1050900000CBE5E72B6923F480732B610023A36128
:1050A0006FF0804363610A9B1BB9A36943F010034F
:1050B000A361A2690B4B1343A3610D9B1BB1A369B1
:1050C00043F00803A361012F04D04046BDE8F0413E
:1050D00004B07047A36943F0804343F00403A36125
:1050E000F3E700BF00383C80D0F8003E23F0030314
:1050F000C0F8003ED0F8043843F00203C0F804388A
:1051000000207047406900F00100704738B505463F
:10511000C36823F0C043C360012913D019BBC3681F
:1051200043F08043C36000240120FDF7A5FA013459
:105130002846FFF7E7FF08B1312CF5D9322C14D0FF
:10514000002038BDC36843F00053C3600024012031
:10515000FDF792FA01342846FFF7D4FF0128EDD07D
:10516000312CF4D9EAE70120EBE70120E9E78428B4
:1051700001D0033070470020704708B500F030FDC3
:10518000002008BD2DE9F04387B00E464469C4B144
:105190008569B5B14768D0F80080D0F81090B0F9B3
:1051A0000800FFF7E4FF02950194009033464A4659
:1051B0004146384600F0A6FC0590059807B0BDE8CA
:1051C000F083446805680769B0F90800FFF7CFFF6E
:1051D00005AB019300903346BAB22946204600F051
:1051E000CCFC0128E9D00020E8E708B500B901208F
:1051F00000F046FE002008BD00F1080343604FF0B8
:10520000FF328260C36003610023036070470023A4
:105210000361704743684B609A688A605160996087
:105220000861036801330360704730B40D68B5F15D
:10523000FF3F11D000F108031C465B681A68AA42C0
:10524000FAD963684B6099608C606160086103689B
:105250000133036030BC70470469F2E703694168B9
:1052600082688A60416851605A68824206D0002292
:1052700002611A68013A1A601868704782685A60B9
:10528000F5E7000082B0002301930D4B1B68B3F1DA
:10529000FF3F08D04FF0500383F31188BFF36F8FA7
:1052A000BFF34F8FFEE74FF0500383F31188BFF336
:1052B0006F8FBFF34F8F019B002BFCD002B0704764
:1052C0001000002008480068006880F308884FF04C
:1052D000000080F3148862B661B6BFF34F8FBFF34E
:1052E0006F8F00DF00BF000008ED00E0DFF80C006A
:1052F000016841F4700101607047000088ED00E032
:105300004FF0807340F8043C21F0010140F8081C84
:10531000054B40F80C3C40F8202C6FF0020340F89D
:10532000243C4438704700BF85520008000000004C
:10533000074B19680868B0E8F04F80F30988BFF39D
:105340006F8F4FF0000080F311887047AFF300803B
:10535000CC5900204FF0500383F31188BFF36F8FB7
:10536000BFF34F8F0B4A136801331360012B00D03A
:1053700070474FF0E023D3F8043D13F0FF0FF7D050
:105380004FF0500383F31188BFF36F8FBFF34F8F3C
:10539000FEE700BF10000020094B1B6843B94FF027
:1053A000500383F31188BFF36F8FBFF34F8FFEE776
:1053B000013B034A13600BB983F31188704700BFA8
:1053C00010000020000000000000000000000000AD
:1053D000EFF30980BFF36F8F154B1A681EF0100FA3
:1053E00008BF20ED108A20E9F04F10602DE9090078
:1053F0004FF0500080F31188BFF34F8FBFF36F8FD2
:1054000000F064FD4FF0000080F3118809BC1968BA
:105410000868B0E8F04F1EF0100F08BFB0EC108A1B
:1054200080F30988BFF36F8F704700BFAFF3008030
:10543000CC59002008B54FF0500383F31188BFF317
:105440006F8FBFF34F8F00F013FC28B14FF0E023B4
:105450004FF08052C3F8042D002383F3118808BD58
:105460004FF0E022002313619361054B1B6805494F
:10547000A1FB03139B09013B536107231361704791
:1054800004000020D34D62104FF0E023D3F8002D2C
:105490003D4B9A421CD04FF0E023D3F8002D3B4BFC
:1054A0009A421ED030B583B0394B1A78D2B20192ED
:1054B000FF221A701B78DBB28DF803309DF80330A1
:1054C00003F05003334A1370334B07221A601BE07A
:1054D0004FF0500383F31188BFF36F8FBFF34F8FEB
:1054E000FEE74FF0500383F31188BFF36F8FBFF3D4
:1054F0004F8FFEE7284A1368013B13609DF8033085
:105500005B00DBB28DF803309DF8033013F0800FA1
:10551000F0D1214B1B68032B08D04FF0500383F3CD
:105520001188BFF36F8FBFF34F8FFEE71B021A4A3C
:10553000136003F4E0631360019BDBB2144A137041
:105540004FF0E024D4F8203D43F47003C4F8203D2C
:10555000D4F8203D43F07043C4F8203DFFF780FFAE
:1055600000250E4B1D60FFF7C1FED4F8343F43F019
:105570004043C4F8343FFFF7A5FE00F0A7FCFFF757
:1055800081FE284603B030BD71C20F4170C20F4189
:1055900000E400E0801C00207C1C002010000020A3
:1055A000124A12F0070F1ED0D11D21F00701C1F5DC
:1055B000705313440A460E480260002141601344B0
:1055C000083B23F007030B48036059601960991AE0
:1055D00051601360084B1960084B1960084B4FF07D
:1055E00000421A6070474FF47053E4E7A41C002097
:1055F0009C1C0020981C0020901C0020941C002063
:10560000841C0020164B1A461B688342FBD351684A
:1056100002EB010C844509D0416800EB010C6345A5
:1056200009D00360904219D010607047406801446F
:1056300051601046F0E710B40A4C2468A3420BD026
:105640005B681944416013681B680360904200D096
:1056500010605DF8044B70470460F7E7704700BFC7
:105660009C1C0020981C002038B5044600F0F2FA7B
:10567000384B1B68B3B1384B1B681C4250D1002C0F
:1056800050D004F1080214F0070F02D022F00702F4
:105690000832002A55D0314B1B68934253D330490E
:1056A0000C6804E0FFF77CFFE5E721461C466368D1
:1056B000934202D22368002BF7D1264B1B68A342EA
:1056C00043D00D68083523680B6063689B1A102B64
:1056D00010D9A01810F0070F08D04FF0500383F333
:1056E0001188BFF36F8FBFF34F8FFEE74360626097
:1056F000FFF788FF626819490B689B1A0B6019490C
:1057000009688B4201D217490B60134B1B68134386
:10571000636000232360144A13680133136002E0BE
:10572000002500E0002500F02FFB15F0070F0ED03C
:105730004FF0500383F31188BFF36F8FBFF34F8F88
:10574000FEE70025EFE70025EDE70025EBE728461B
:1057500038BD00BF981C0020841C0020941C002031
:105760009C1C0020901C00208C1C0020002834D0A1
:1057700038B50446A0F1080550F8043C174A1268F1
:10578000134208D14FF0500383F31188BFF36F8F9A
:10579000BFF34F8FFEE750F8081C41B14FF05003A4
:1057A00083F31188BFF36F8FBFF34F8FFEE723EAB8
:1057B000020340F8043C00F04DFA54F8041C084A77
:1057C00013680B4413602846FFF71CFF054A136853
:1057D0000133136000F0D8FA38BD7047841C0020F4
:1057E000941C0020881C0020084B1B681B6823B9F0
:1057F000074B4FF0FF321A607047044B1B68DB68A1
:10580000DB685A68024B1A60704700BF14590020C9
:10581000AC5800202DE9F04707469846089DDDF872
:1058200024900A9C266B02F18042013A06EB820624
:1058300026F00706C1B308464FF0000CBCF10F0F6D
:1058400009D810F80C2004EB0C0383F8342012B1B3
:105850000CF1010CF2E7002384F84330062D00D947
:105860000625E56265644FF0000AC4F848A0201DD3
:10587000FFF7CDFC04F11800FFF7C9FC2461C5F166
:105880000705A5616462C4F84CA084F850A04246A4
:1058900039463046FFF734FD2060B9F1000F01D0E2
:1058A000C9F80040BDE8F087002384F83430D5E71C
:1058B00038B5002407E004EB840293000E48184436
:1058C000FFF79AFC0134062CF5D90C4D2846FFF75A
:1058D00093FC0B4C2046FFF78FFC0A48FFF78CFC2B
:1058E0000948FFF789FC0948FFF786FC084B1D6053
:1058F000084B1C6038BD00BF405900202C590020C7
:1059000018590020FC580020E8580020D0580020EA
:10591000145900201059002010B50446FFF71AFD55
:10592000214A136801331360204B1B685BB1204B85
:105930001B686BB91D4B1B68DA6AE36A9A4207D889
:105940001A4B1C6004E0194B1C601368012B28D013
:10595000184A136801331360E06A01238340164A32
:1059600011680B43136000EB8000211D134B03EB08
:105970008000FFF74FFCFFF70FFD0D4B1B687BB15D
:105980000A4B1B68DA6AE36A9A4209D24FF0E023B5
:105990004FF08052C3F8042DBFF34F8FBFF36F8FCA
:1059A00010BDFFF785FFD3E7CC580020CC5900206D
:1059B000C0580020B0580020C45800204059002092
:1059C00010B5044690F8513063B1012B11D0022B71
:1059D0000ED04FF0500383F31188BFF36F8FBFF3E6
:1059E0004F8FFEE7006BFFF7C1FE2046FFF7BEFEBC
:1059F00010BDFFF7BBFEFBE70F4B1B68D3B110B523
:105A0000FFF7A8FC0D4BDB68DC68201DFFF726FCC8
:105A10000B4A1368013B1360074A1368013B13608C
:105A2000FFF7BAFC2046FFF7CBFF034B1B68002BA8
:105A3000E6D110BD704700BFE4580020E8580020B0
:105A4000CC58002008B5FFF7D7FF074B1B68012B88
:105A5000F9D94FF0E0234FF08052C3F8042DBFF383
:105A60004F8FBFF36F8FEEE74059002070B50446AB
:105A70000D461D4B1E681D4B18680430FFF7EEFBEA
:105A800048B91A4B1B68DB6A01229A4018490B6817
:105A900023EA02030B60B4F1FF3F0DD03444134BF3
:105AA0001B685C60A64210D9124B18680F4B19682E
:105AB0000431FFF7BAFB70BD002DEFD00B4B196816
:105AC00004310D48FFF7A6FBF5E70C4B1868074BB0
:105AD00019680431FFF7A9FB094B1B68A342EAD9F7
